Archive member included to satisfy reference by file (symbol)

c:/program files (x86)/embitz/1.11/share/em_armgcc/bin/../lib/gcc/arm-none-eabi/5.4.1/../../../../arm-none-eabi/lib/armv7-m\libg_n.a(lib_a-exit.o)
                              c:/program files (x86)/embitz/1.11/share/em_armgcc/bin/../lib/gcc/arm-none-eabi/5.4.1/../../../../arm-none-eabi/lib/armv7-m/crt0.o (exit)
c:/program files (x86)/embitz/1.11/share/em_armgcc/bin/../lib/gcc/arm-none-eabi/5.4.1/../../../../arm-none-eabi/lib/armv7-m\libg_n.a(lib_a-impure.o)
                              c:/program files (x86)/embitz/1.11/share/em_armgcc/bin/../lib/gcc/arm-none-eabi/5.4.1/../../../../arm-none-eabi/lib/armv7-m\libg_n.a(lib_a-exit.o) (_global_impure_ptr)
c:/program files (x86)/embitz/1.11/share/em_armgcc/bin/../lib/gcc/arm-none-eabi/5.4.1/../../../../arm-none-eabi/lib/armv7-m\libg_n.a(lib_a-init.o)
                              c:/program files (x86)/embitz/1.11/share/em_armgcc/bin/../lib/gcc/arm-none-eabi/5.4.1/../../../../arm-none-eabi/lib/armv7-m/crt0.o (__libc_init_array)
c:/program files (x86)/embitz/1.11/share/em_armgcc/bin/../lib/gcc/arm-none-eabi/5.4.1/../../../../arm-none-eabi/lib/armv7-m\libg_n.a(lib_a-memcpy-stub.o)
                              obj\debug\libopencm3\usb\usb_standard.o (memcpy)
c:/program files (x86)/embitz/1.11/share/em_armgcc/bin/../lib/gcc/arm-none-eabi/5.4.1/../../../../arm-none-eabi/lib/armv7-m\libg_n.a(lib_a-memset.o)
                              c:/program files (x86)/embitz/1.11/share/em_armgcc/bin/../lib/gcc/arm-none-eabi/5.4.1/../../../../arm-none-eabi/lib/armv7-m/crt0.o (memset)
c:/program files (x86)/embitz/1.11/share/em_armgcc/bin/../lib/gcc/arm-none-eabi/5.4.1/../../../../arm-none-eabi/lib/armv7-m\libg_n.a(lib_a-strlen.o)
                              obj\debug\libopencm3\usb\usb_standard.o (strlen)
c:/program files (x86)/embitz/1.11/share/em_armgcc/bin/../lib/gcc/arm-none-eabi/5.4.1/../../../../arm-none-eabi/lib/armv7-m\libnosys_s.a(_exit.o)
                              c:/program files (x86)/embitz/1.11/share/em_armgcc/bin/../lib/gcc/arm-none-eabi/5.4.1/../../../../arm-none-eabi/lib/armv7-m\libg_n.a(lib_a-exit.o) (_exit)

Allocating common symbols
Common symbol       size              file

hid_report          0x4               obj\debug\src\xpt2046.o
touch_reports       0xc               obj\debug\src\xpt2046.o
data                0x14              obj\debug\src\xpt2046.o
usbd_control_buffer
                    0x80              obj\debug\src\usb_device.o
st_usbfs_force_nak  0x8               obj\debug\libopencm3\stm32\common\st_usbfs_core.o
st_usbfs_dev        0xfc              obj\debug\libopencm3\stm32\common\st_usbfs_core.o

Discarded input sections

 .text          0x00000000        0x0 c:/program files (x86)/embitz/1.11/share/em_armgcc/bin/../lib/gcc/arm-none-eabi/5.4.1/armv7-m/crti.o
 .data          0x00000000        0x0 c:/program files (x86)/embitz/1.11/share/em_armgcc/bin/../lib/gcc/arm-none-eabi/5.4.1/armv7-m/crti.o
 .bss           0x00000000        0x0 c:/program files (x86)/embitz/1.11/share/em_armgcc/bin/../lib/gcc/arm-none-eabi/5.4.1/armv7-m/crti.o
 .data          0x00000000        0x4 c:/program files (x86)/embitz/1.11/share/em_armgcc/bin/../lib/gcc/arm-none-eabi/5.4.1/armv7-m/crtbegin.o
 .text          0x00000000       0x74 c:/program files (x86)/embitz/1.11/share/em_armgcc/bin/../lib/gcc/arm-none-eabi/5.4.1/../../../../arm-none-eabi/lib/armv7-m/crt0.o
 .data          0x00000000        0x0 c:/program files (x86)/embitz/1.11/share/em_armgcc/bin/../lib/gcc/arm-none-eabi/5.4.1/../../../../arm-none-eabi/lib/armv7-m/crt0.o
 .bss           0x00000000        0x0 c:/program files (x86)/embitz/1.11/share/em_armgcc/bin/../lib/gcc/arm-none-eabi/5.4.1/../../../../arm-none-eabi/lib/armv7-m/crt0.o
 .ARM.extab     0x00000000        0x0 c:/program files (x86)/embitz/1.11/share/em_armgcc/bin/../lib/gcc/arm-none-eabi/5.4.1/../../../../arm-none-eabi/lib/armv7-m/crt0.o
 .ARM.exidx     0x00000000        0x8 c:/program files (x86)/embitz/1.11/share/em_armgcc/bin/../lib/gcc/arm-none-eabi/5.4.1/../../../../arm-none-eabi/lib/armv7-m/crt0.o
 .ARM.attributes
                0x00000000       0x1b c:/program files (x86)/embitz/1.11/share/em_armgcc/bin/../lib/gcc/arm-none-eabi/5.4.1/../../../../arm-none-eabi/lib/armv7-m/crt0.o
 .group         0x00000000        0x8 obj\debug\libopencm3\cm3\assert.o
 .group         0x00000000        0x8 obj\debug\libopencm3\cm3\assert.o
 .group         0x00000000        0x8 obj\debug\libopencm3\cm3\assert.o
 .group         0x00000000        0x8 obj\debug\libopencm3\cm3\assert.o
 .group         0x00000000        0x8 obj\debug\libopencm3\cm3\assert.o
 .group         0x00000000        0x8 obj\debug\libopencm3\cm3\assert.o
 .group         0x00000000        0x8 obj\debug\libopencm3\cm3\assert.o
Memory Configuration

Name             Origin             Length             Attributes
rom              0x08000000         0x00010000         xr
ram              0x20000000         0x00005000         xrw
*default*        0x00000000         0xffffffff

Linker script and memory map

LOAD c:/program files (x86)/embitz/1.11/share/em_armgcc/bin/../lib/gcc/arm-none-eabi/5.4.1/armv7-m/crti.o
LOAD c:/program files (x86)/embitz/1.11/share/em_armgcc/bin/../lib/gcc/arm-none-eabi/5.4.1/armv7-m/crtbegin.o
LOAD c:/program files (x86)/embitz/1.11/share/em_armgcc/bin/../lib/gcc/arm-none-eabi/5.4.1/../../../../arm-none-eabi/lib/armv7-m/crt0.o
                0x00000100                __HEAP_SIZE = 0x100
                0x00001800                __STACK_SIZE = 0x1800

.text           0x08000000     0x34fc
 *(.vectors)
 .vectors       0x08000000      0x150 obj\debug\libopencm3\cm3\vector.o
                0x08000000                vector_table
 *(.text*)
 .text          0x08000150       0x5c c:/program files (x86)/embitz/1.11/share/em_armgcc/bin/../lib/gcc/arm-none-eabi/5.4.1/armv7-m/crtbegin.o
 .text.systick_set_reload
                0x080001ac       0x20 obj\debug\libopencm3\cm3\systick.o
                0x080001ac                systick_set_reload
 .text.systick_set_clocksource
                0x080001cc       0x2c obj\debug\libopencm3\cm3\systick.o
                0x080001cc                systick_set_clocksource
 .text.systick_interrupt_enable
                0x080001f8       0x1c obj\debug\libopencm3\cm3\systick.o
                0x080001f8                systick_interrupt_enable
 .text.systick_counter_enable
                0x08000214       0x1c obj\debug\libopencm3\cm3\systick.o
                0x08000214                systick_counter_enable
 .text.pre_main
                0x08000230        0xc obj\debug\libopencm3\cm3\vector.o
 .text.reset_handler
                0x0800023c       0x98 obj\debug\libopencm3\cm3\vector.o
                0x0800023c                reset_handler
 .text.blocking_handler
                0x080002d4        0x8 obj\debug\libopencm3\cm3\vector.o
                0x080002d4                usart3_isr
                0x080002d4                rtc_isr
                0x080002d4                tim7_isr
                0x080002d4                adc1_2_isr
                0x080002d4                tim1_trg_com_isr
                0x080002d4                usb_hp_can_tx_isr
                0x080002d4                tim6_isr
                0x080002d4                usb_wakeup_isr
                0x080002d4                blocking_handler
                0x080002d4                tim5_isr
                0x080002d4                otg_fs_isr
                0x080002d4                spi1_isr
                0x080002d4                dma1_channel6_isr
                0x080002d4                exti2_isr
                0x080002d4                can_rx1_isr
                0x080002d4                dma1_channel5_isr
                0x080002d4                dma2_channel5_isr
                0x080002d4                usart1_isr
                0x080002d4                usage_fault_handler
                0x080002d4                tim8_trg_com_isr
                0x080002d4                can2_rx0_isr
                0x080002d4                tim1_brk_isr
                0x080002d4                can2_rx1_isr
                0x080002d4                tim1_cc_isr
                0x080002d4                sdio_isr
                0x080002d4                eth_isr
                0x080002d4                dma1_channel4_isr
                0x080002d4                tim8_brk_isr
                0x080002d4                dma2_channel4_5_isr
                0x080002d4                pvd_isr
                0x080002d4                rcc_isr
                0x080002d4                flash_isr
                0x080002d4                uart4_isr
                0x080002d4                rtc_alarm_isr
                0x080002d4                exti15_10_isr
                0x080002d4                hard_fault_handler
                0x080002d4                exti1_isr
                0x080002d4                i2c1_ev_isr
                0x080002d4                dma2_channel1_isr
                0x080002d4                spi2_isr
                0x080002d4                tim8_up_isr
                0x080002d4                dma2_channel2_isr
                0x080002d4                adc3_isr
                0x080002d4                exti3_isr
                0x080002d4                tim3_isr
                0x080002d4                usart2_isr
                0x080002d4                usb_lp_can_rx0_isr
                0x080002d4                i2c2_er_isr
                0x080002d4                i2c2_ev_isr
                0x080002d4                uart5_isr
                0x080002d4                fsmc_isr
                0x080002d4                dma1_channel1_isr
                0x080002d4                exti4_isr
                0x080002d4                mem_manage_handler
                0x080002d4                can2_tx_isr
                0x080002d4                exti9_5_isr
                0x080002d4                dma2_channel3_isr
                0x080002d4                dma1_channel7_isr
                0x080002d4                tim1_up_isr
                0x080002d4                can2_sce_isr
                0x080002d4                tim4_isr
                0x080002d4                dma1_channel2_isr
                0x080002d4                i2c1_er_isr
                0x080002d4                can_sce_isr
                0x080002d4                tim8_cc_isr
                0x080002d4                tamper_isr
                0x080002d4                eth_wkup_isr
                0x080002d4                bus_fault_handler
                0x080002d4                wwdg_isr
                0x080002d4                dma1_channel3_isr
                0x080002d4                spi3_isr
                0x080002d4                tim2_isr
                0x080002d4                exti0_isr
 .text.null_handler
                0x080002dc        0xc obj\debug\libopencm3\cm3\vector.o
                0x080002dc                sv_call_handler
                0x080002dc                pend_sv_handler
                0x080002dc                debug_monitor_handler
                0x080002dc                nmi_handler
                0x080002dc                null_handler
 .text.flash_set_ws
                0x080002e8       0x28 obj\debug\libopencm3\stm32\common\flash_common_f01.o
                0x080002e8                flash_set_ws
 .text.gpio_set
                0x08000310       0x20 obj\debug\libopencm3\stm32\common\gpio_common_all.o
                0x08000310                gpio_set
 .text.gpio_clear
                0x08000330       0x24 obj\debug\libopencm3\stm32\common\gpio_common_all.o
                0x08000330                gpio_clear
 .text.rcc_periph_clock_enable
                0x08000354       0x44 obj\debug\libopencm3\stm32\common\rcc_common_all.o
                0x08000354                rcc_periph_clock_enable
 .text.rcc_periph_reset_pulse
                0x08000398       0x78 obj\debug\libopencm3\stm32\common\rcc_common_all.o
                0x08000398                rcc_periph_reset_pulse
 .text.spi_reset
                0x08000410       0x50 obj\debug\libopencm3\stm32\common\spi_common_all.o
                0x08000410                spi_reset
 .text.spi_enable
                0x08000460       0x20 obj\debug\libopencm3\stm32\common\spi_common_all.o
                0x08000460                spi_enable
 .text.spi_disable
                0x08000480       0x28 obj\debug\libopencm3\stm32\common\spi_common_all.o
                0x08000480                spi_disable
 .text.spi_send
                0x080004a8       0x30 obj\debug\libopencm3\stm32\common\spi_common_all.o
                0x080004a8                spi_send
 .text.spi_disable_crc
                0x080004d8       0x20 obj\debug\libopencm3\stm32\common\spi_common_all.o
                0x080004d8                spi_disable_crc
 .text.spi_set_full_duplex_mode
                0x080004f8       0x20 obj\debug\libopencm3\stm32\common\spi_common_all.o
                0x080004f8                spi_set_full_duplex_mode
 .text.spi_enable_software_slave_management
                0x08000518       0x30 obj\debug\libopencm3\stm32\common\spi_common_all.o
                0x08000518                spi_enable_software_slave_management
 .text.spi_set_nss_high
                0x08000548       0x20 obj\debug\libopencm3\stm32\common\spi_common_all.o
                0x08000548                spi_set_nss_high
 .text.spi_send_msb_first
                0x08000568       0x20 obj\debug\libopencm3\stm32\common\spi_common_all.o
                0x08000568                spi_send_msb_first
 .text.spi_set_baudrate_prescaler
                0x08000588       0x3c obj\debug\libopencm3\stm32\common\spi_common_all.o
                0x08000588                spi_set_baudrate_prescaler
 .text.spi_set_master_mode
                0x080005c4       0x20 obj\debug\libopencm3\stm32\common\spi_common_all.o
                0x080005c4                spi_set_master_mode
 .text.spi_set_clock_polarity_1
                0x080005e4       0x20 obj\debug\libopencm3\stm32\common\spi_common_all.o
                0x080005e4                spi_set_clock_polarity_1
 .text.spi_set_clock_phase_1
                0x08000604       0x20 obj\debug\libopencm3\stm32\common\spi_common_all.o
                0x08000604                spi_set_clock_phase_1
 .text.spi_disable_tx_buffer_empty_interrupt
                0x08000624       0x24 obj\debug\libopencm3\stm32\common\spi_common_all.o
                0x08000624                spi_disable_tx_buffer_empty_interrupt
 .text.spi_disable_rx_buffer_not_empty_interrupt
                0x08000648       0x24 obj\debug\libopencm3\stm32\common\spi_common_all.o
                0x08000648                spi_disable_rx_buffer_not_empty_interrupt
 .text.spi_disable_error_interrupt
                0x0800066c       0x24 obj\debug\libopencm3\stm32\common\spi_common_all.o
                0x0800066c                spi_disable_error_interrupt
 .text.spi_disable_ss_output
                0x08000690       0x24 obj\debug\libopencm3\stm32\common\spi_common_all.o
                0x08000690                spi_disable_ss_output
 .text.spi_disable_tx_dma
                0x080006b4       0x24 obj\debug\libopencm3\stm32\common\spi_common_all.o
                0x080006b4                spi_disable_tx_dma
 .text.spi_disable_rx_dma
                0x080006d8       0x24 obj\debug\libopencm3\stm32\common\spi_common_all.o
                0x080006d8                spi_disable_rx_dma
 .text.st_usbfs_set_address
                0x080006fc       0x28 obj\debug\libopencm3\stm32\common\st_usbfs_core.o
                0x080006fc                st_usbfs_set_address
 .text.st_usbfs_set_ep_rx_bufsize
                0x08000724       0x98 obj\debug\libopencm3\stm32\common\st_usbfs_core.o
                0x08000724                st_usbfs_set_ep_rx_bufsize
 .text.st_usbfs_ep_setup
                0x080007bc      0x240 obj\debug\libopencm3\stm32\common\st_usbfs_core.o
                0x080007bc                st_usbfs_ep_setup
 .text.st_usbfs_endpoints_reset
                0x080009fc       0xb0 obj\debug\libopencm3\stm32\common\st_usbfs_core.o
                0x080009fc                st_usbfs_endpoints_reset
 .text.st_usbfs_ep_stall_set
                0x08000aac      0x188 obj\debug\libopencm3\stm32\common\st_usbfs_core.o
                0x08000aac                st_usbfs_ep_stall_set
 .text.st_usbfs_ep_stall_get
                0x08000c34       0x5c obj\debug\libopencm3\stm32\common\st_usbfs_core.o
                0x08000c34                st_usbfs_ep_stall_get
 .text.st_usbfs_ep_nak_set
                0x08000c90       0xd0 obj\debug\libopencm3\stm32\common\st_usbfs_core.o
                0x08000c90                st_usbfs_ep_nak_set
 .text.st_usbfs_ep_write_packet
                0x08000d60       0xe0 obj\debug\libopencm3\stm32\common\st_usbfs_core.o
                0x08000d60                st_usbfs_ep_write_packet
 .text.st_usbfs_ep_read_packet
                0x08000e40      0x148 obj\debug\libopencm3\stm32\common\st_usbfs_core.o
                0x08000e40                st_usbfs_ep_read_packet
 .text.st_usbfs_poll
                0x08000f88      0x1d4 obj\debug\libopencm3\stm32\common\st_usbfs_core.o
                0x08000f88                st_usbfs_poll
 .text.gpio_set_mode
                0x0800115c       0xe8 obj\debug\libopencm3\stm32\f1\gpio.o
                0x0800115c                gpio_set_mode
 .text.rcc_wait_for_osc_ready
                0x08001244       0xbc obj\debug\libopencm3\stm32\f1\rcc.o
                0x08001244                rcc_wait_for_osc_ready
 .text.rcc_osc_on
                0x08001300       0xac obj\debug\libopencm3\stm32\f1\rcc.o
                0x08001300                rcc_osc_on
 .text.rcc_set_sysclk_source
                0x080013ac       0x28 obj\debug\libopencm3\stm32\f1\rcc.o
                0x080013ac                rcc_set_sysclk_source
 .text.rcc_set_pll_multiplication_factor
                0x080013d4       0x28 obj\debug\libopencm3\stm32\f1\rcc.o
                0x080013d4                rcc_set_pll_multiplication_factor
 .text.rcc_set_pll_source
                0x080013fc       0x28 obj\debug\libopencm3\stm32\f1\rcc.o
                0x080013fc                rcc_set_pll_source
 .text.rcc_set_pllxtpre
                0x08001424       0x28 obj\debug\libopencm3\stm32\f1\rcc.o
                0x08001424                rcc_set_pllxtpre
 .text.rcc_set_adcpre
                0x0800144c       0x28 obj\debug\libopencm3\stm32\f1\rcc.o
                0x0800144c                rcc_set_adcpre
 .text.rcc_set_ppre2
                0x08001474       0x28 obj\debug\libopencm3\stm32\f1\rcc.o
                0x08001474                rcc_set_ppre2
 .text.rcc_set_ppre1
                0x0800149c       0x28 obj\debug\libopencm3\stm32\f1\rcc.o
                0x0800149c                rcc_set_ppre1
 .text.rcc_set_hpre
                0x080014c4       0x28 obj\debug\libopencm3\stm32\f1\rcc.o
                0x080014c4                rcc_set_hpre
 .text.rcc_set_usbpre
                0x080014ec       0x38 obj\debug\libopencm3\stm32\f1\rcc.o
                0x080014ec                rcc_set_usbpre
 .text.rcc_clock_setup_in_hse_8mhz_out_72mhz
                0x08001524       0x94 obj\debug\libopencm3\stm32\f1\rcc.o
                0x08001524                rcc_clock_setup_in_hse_8mhz_out_72mhz
 .text.st_usbfs_v1_usbd_init
                0x080015b8       0x3c obj\debug\libopencm3\stm32\st_usbfs_v1.o
 .text.st_usbfs_copy_to_pm
                0x080015f4       0x48 obj\debug\libopencm3\stm32\st_usbfs_v1.o
                0x080015f4                st_usbfs_copy_to_pm
 .text.st_usbfs_copy_from_pm
                0x0800163c       0x64 obj\debug\libopencm3\stm32\st_usbfs_v1.o
                0x0800163c                st_usbfs_copy_from_pm
 .text.usbd_init
                0x080016a0       0x88 obj\debug\libopencm3\usb\usb.o
                0x080016a0                usbd_init
 .text.usbd_register_reset_callback
                0x08001728       0x1c obj\debug\libopencm3\usb\usb.o
                0x08001728                usbd_register_reset_callback
 .text.usbd_register_suspend_callback
                0x08001744       0x1c obj\debug\libopencm3\usb\usb.o
                0x08001744                usbd_register_suspend_callback
 .text.usbd_register_resume_callback
                0x08001760       0x1c obj\debug\libopencm3\usb\usb.o
                0x08001760                usbd_register_resume_callback
 .text._usbd_reset
                0x0800177c       0x50 obj\debug\libopencm3\usb\usb.o
                0x0800177c                _usbd_reset
 .text.usbd_ep_setup
                0x080017cc       0x3c obj\debug\libopencm3\usb\usb.o
                0x080017cc                usbd_ep_setup
 .text.usbd_ep_write_packet
                0x08001808       0x30 obj\debug\libopencm3\usb\usb.o
                0x08001808                usbd_ep_write_packet
 .text.usbd_ep_read_packet
                0x08001838       0x30 obj\debug\libopencm3\usb\usb.o
                0x08001838                usbd_ep_read_packet
 .text.usbd_ep_stall_set
                0x08001868       0x28 obj\debug\libopencm3\usb\usb.o
                0x08001868                usbd_ep_stall_set
 .text.usbd_ep_stall_get
                0x08001890       0x28 obj\debug\libopencm3\usb\usb.o
                0x08001890                usbd_ep_stall_get
 .text.stall_transaction
                0x080018b8       0x24 obj\debug\libopencm3\usb\usb_control.o
 .text.needs_zlp
                0x080018dc       0x44 obj\debug\libopencm3\usb\usb_control.o
 .text.usbd_register_control_callback
                0x08001920       0x70 obj\debug\libopencm3\usb\usb_control.o
                0x08001920                usbd_register_control_callback
 .text.usb_control_send_chunk
                0x08001990       0x9c obj\debug\libopencm3\usb\usb_control.o
 .text.usb_control_recv_chunk
                0x08001a2c       0x68 obj\debug\libopencm3\usb\usb_control.o
 .text.usb_control_request_dispatch
                0x08001a94       0xac obj\debug\libopencm3\usb\usb_control.o
 .text.usb_control_setup_read
                0x08001b40       0x80 obj\debug\libopencm3\usb\usb_control.o
 .text.usb_control_setup_write
                0x08001bc0       0x58 obj\debug\libopencm3\usb\usb_control.o
 .text._usbd_control_setup
                0x08001c18       0x68 obj\debug\libopencm3\usb\usb_control.o
                0x08001c18                _usbd_control_setup
 .text._usbd_control_out
                0x08001c80       0xd4 obj\debug\libopencm3\usb\usb_control.o
                0x08001c80                _usbd_control_out
 .text._usbd_control_in
                0x08001d54       0x8c obj\debug\libopencm3\usb\usb_control.o
                0x08001d54                _usbd_control_in
 .text.usbd_register_set_config_callback
                0x08001de0       0x4c obj\debug\libopencm3\usb\usb_standard.o
                0x08001de0                usbd_register_set_config_callback
 .text.build_config_descriptor
                0x08001e2c      0x290 obj\debug\libopencm3\usb\usb_standard.o
 .text.usb_descriptor_type
                0x080020bc       0x1c obj\debug\libopencm3\usb\usb_standard.o
 .text.usb_descriptor_index
                0x080020d8       0x18 obj\debug\libopencm3\usb\usb_standard.o
 .text.usb_standard_get_descriptor
                0x080020f0      0x17c obj\debug\libopencm3\usb\usb_standard.o
 .text.usb_standard_set_address
                0x0800226c       0x60 obj\debug\libopencm3\usb\usb_standard.o
 .text.usb_standard_set_configuration
                0x080022cc      0x148 obj\debug\libopencm3\usb\usb_standard.o
 .text.usb_standard_get_configuration
                0x08002414       0x60 obj\debug\libopencm3\usb\usb_standard.o
 .text.usb_standard_set_interface
                0x08002474       0xb8 obj\debug\libopencm3\usb\usb_standard.o
 .text.usb_standard_get_interface
                0x0800252c       0x78 obj\debug\libopencm3\usb\usb_standard.o
 .text.usb_standard_device_get_status
                0x080025a4       0x3c obj\debug\libopencm3\usb\usb_standard.o
 .text.usb_standard_interface_get_status
                0x080025e0       0x3c obj\debug\libopencm3\usb\usb_standard.o
 .text.usb_standard_endpoint_get_status
                0x0800261c       0x54 obj\debug\libopencm3\usb\usb_standard.o
 .text.usb_standard_endpoint_stall
                0x08002670       0x2c obj\debug\libopencm3\usb\usb_standard.o
 .text.usb_standard_endpoint_unstall
                0x0800269c       0x2c obj\debug\libopencm3\usb\usb_standard.o
 .text._usbd_standard_request_device
                0x080026c8       0xa4 obj\debug\libopencm3\usb\usb_standard.o
                0x080026c8                _usbd_standard_request_device
 .text._usbd_standard_request_interface
                0x0800276c       0x90 obj\debug\libopencm3\usb\usb_standard.o
                0x0800276c                _usbd_standard_request_interface
 .text._usbd_standard_request_endpoint
                0x080027fc       0xac obj\debug\libopencm3\usb\usb_standard.o
                0x080027fc                _usbd_standard_request_endpoint
 .text._usbd_standard_request
                0x080028a8       0x6c obj\debug\libopencm3\usb\usb_standard.o
                0x080028a8                _usbd_standard_request
 .text.main     0x08002914       0x68 obj\debug\src\main.o
                0x08002914                main
 .text.sys_tick_handler
                0x0800297c       0x1c obj\debug\src\systick.o
                0x0800297c                sys_tick_handler
 .text.setup_systick
                0x08002998       0x20 obj\debug\src\systick.o
                0x08002998                setup_systick
 .text.msleep   0x080029b8       0x40 obj\debug\src\systick.o
                0x080029b8                msleep
 .text.get_scan_time
                0x080029f8       0x18 obj\debug\src\systick.o
                0x080029f8                get_scan_time
 .text.hid_suspend
                0x08002a10       0x1c obj\debug\src\usb_device.o
 .text.hid_wakeup
                0x08002a2c       0x1c obj\debug\src\usb_device.o
 .text.setup_usb
                0x08002a48       0x84 obj\debug\src\usb_device.o
                0x08002a48                setup_usb
 .text.poll_usb
                0x08002acc       0x18 obj\debug\src\usb_device.o
                0x08002acc                poll_usb
 .text.send_hid_report
                0x08002ae4       0x50 obj\debug\src\usb_device.o
                0x08002ae4                send_hid_report
 .text.hid_control_request
                0x08002b34       0x7c obj\debug\src\usb_device.o
 .text.hid_set_config
                0x08002bb0       0x34 obj\debug\src\usb_device.o
 .text.InitLowPass
                0x08002be4       0x3c obj\debug\src\xpt2046.o
 .text.LowPass  0x08002c20       0x4c obj\debug\src\xpt2046.o
 .text.spi_transcieve
                0x08002c6c       0x38 obj\debug\src\xpt2046.o
 .text.setup_xpt2046
                0x08002ca4       0xfc obj\debug\src\xpt2046.o
                0x08002ca4                setup_xpt2046
 .text.init_reports
                0x08002da0       0x64 obj\debug\src\xpt2046.o
                0x08002da0                init_reports
 .text._readLoop
                0x08002e04       0x5c obj\debug\src\xpt2046.o
 .text.xpt2046_read
                0x08002e60      0x160 obj\debug\src\xpt2046.o
 .text.xpt2046_poll
                0x08002fc0      0x430 obj\debug\src\xpt2046.o
                0x08002fc0                xpt2046_poll
 .text.memcpy   0x080033f0       0x16 c:/program files (x86)/embitz/1.11/share/em_armgcc/bin/../lib/gcc/arm-none-eabi/5.4.1/../../../../arm-none-eabi/lib/armv7-m\libg_n.a(lib_a-memcpy-stub.o)
                0x080033f0                memcpy
 .text          0x08003406       0x10 c:/program files (x86)/embitz/1.11/share/em_armgcc/bin/../lib/gcc/arm-none-eabi/5.4.1/../../../../arm-none-eabi/lib/armv7-m\libg_n.a(lib_a-strlen.o)
                0x08003406                strlen
                0x08003418                . = ALIGN (0x4)
 *fill*         0x08003416        0x2 
 *(.rodata*)
 .rodata        0x08003418        0x8 obj\debug\libopencm3\stm32\common\st_usbfs_core.o
 .rodata.st_usbfs_v1_usb_driver
                0x08003420       0x34 obj\debug\libopencm3\stm32\st_usbfs_v1.o
                0x08003420                st_usbfs_v1_usb_driver
 .rodata.hid_report_descriptor
                0x08003454       0x7c obj\debug\src\usb_device.o
 .rodata        0x080034d0       0x26 obj\debug\src\usb_device.o
 *fill*         0x080034f6        0x2 
 .rodata.hid_feature_report
                0x080034f8        0x2 obj\debug\src\usb_device.o
                0x080034fc                . = ALIGN (0x4)
 *fill*         0x080034fa        0x2 

.glue_7         0x080034fc        0x0
 .glue_7        0x080034fc        0x0 linker stubs

.glue_7t        0x080034fc        0x0
 .glue_7t       0x080034fc        0x0 linker stubs

.vfp11_veneer   0x080034fc        0x0
 .vfp11_veneer  0x080034fc        0x0 linker stubs

.v4_bx          0x080034fc        0x0
 .v4_bx         0x080034fc        0x0 linker stubs

.init           0x080034fc        0x4
 .init          0x080034fc        0x4 c:/program files (x86)/embitz/1.11/share/em_armgcc/bin/../lib/gcc/arm-none-eabi/5.4.1/armv7-m/crti.o
                0x080034fc                _init

.fini           0x08003500        0x4
 .fini          0x08003500        0x4 c:/program files (x86)/embitz/1.11/share/em_armgcc/bin/../lib/gcc/arm-none-eabi/5.4.1/armv7-m/crti.o
                0x08003500                _fini

.iplt           0x08003504        0x0
 .iplt          0x08003504        0x0 c:/program files (x86)/embitz/1.11/share/em_armgcc/bin/../lib/gcc/arm-none-eabi/5.4.1/armv7-m/crtbegin.o

.eh_frame       0x08003504        0x0
 .eh_frame      0x08003504        0x0 c:/program files (x86)/embitz/1.11/share/em_armgcc/bin/../lib/gcc/arm-none-eabi/5.4.1/armv7-m/crtbegin.o

.rel.dyn        0x08003504        0x0
 .rel.iplt      0x08003504        0x0 c:/program files (x86)/embitz/1.11/share/em_armgcc/bin/../lib/gcc/arm-none-eabi/5.4.1/armv7-m/crtbegin.o

.preinit_array  0x08003504        0x0
                0x08003504                . = ALIGN (0x4)
                0x08003504                __preinit_array_start = .
 *(.preinit_array)
                0x08003504                __preinit_array_end = .

.init_array     0x08003504        0x4
                0x08003504                . = ALIGN (0x4)
                0x08003504                __init_array_start = .
 *(SORT(.init_array.*))
 *(.init_array)
 .init_array    0x08003504        0x4 c:/program files (x86)/embitz/1.11/share/em_armgcc/bin/../lib/gcc/arm-none-eabi/5.4.1/armv7-m/crtbegin.o
                0x08003508                __init_array_end = .

.fini_array     0x08003508        0x4
                0x08003508                . = ALIGN (0x4)
                0x08003508                __fini_array_start = .
 *(.fini_array)
 .fini_array    0x08003508        0x4 c:/program files (x86)/embitz/1.11/share/em_armgcc/bin/../lib/gcc/arm-none-eabi/5.4.1/armv7-m/crtbegin.o
 *(SORT(.fini_array.*))
                0x0800350c                __fini_array_end = .

.ARM.extab
 *(.ARM.extab*)

.ARM.exidx      0x0800350c        0x0
                0x0800350c                __exidx_start = .
 *(.ARM.exidx*)
                0x0800350c                __exidx_end = .
                0x0800350c                . = ALIGN (0x4)
                0x0800350c                _etext = .

.data           0x20000000       0x80 load address 0x0800350c
                0x20000000                _data = .
 *(.data*)
 .data.rcc_apb1_frequency
                0x20000000        0x4 obj\debug\libopencm3\stm32\f1\rcc.o
                0x20000000                rcc_apb1_frequency
 .data.rcc_apb2_frequency
                0x20000004        0x4 obj\debug\libopencm3\stm32\f1\rcc.o
                0x20000004                rcc_apb2_frequency
 .data.rcc_ahb_frequency
                0x20000008        0x4 obj\debug\libopencm3\stm32\f1\rcc.o
                0x20000008                rcc_ahb_frequency
 .data.usb_strings
                0x2000000c        0xc obj\debug\src\usb_device.o
 .data.hid_function
                0x20000018        0x9 obj\debug\src\usb_device.o
 *fill*         0x20000021        0x3 
 .data.hid_endpoint
                0x20000024        0xf obj\debug\src\usb_device.o
                0x20000024                hid_endpoint
 *fill*         0x20000033        0x1 
 .data.hid_iface
                0x20000034       0x15 obj\debug\src\usb_device.o
                0x20000034                hid_iface
 *fill*         0x20000049        0x3 
 .data.ifaces   0x2000004c       0x10 obj\debug\src\usb_device.o
                0x2000004c                ifaces
 .data.dev      0x2000005c       0x12 obj\debug\src\usb_device.o
 *fill*         0x2000006e        0x2 
 .data.config   0x20000070        0xd obj\debug\src\usb_device.o
                0x20000070                config
 .data.wasreleased.5426
                0x2000007d        0x1 obj\debug\src\xpt2046.o
                0x20000080                . = ALIGN (0x4)
 *fill*         0x2000007e        0x2 
                0x20000080                _edata = .
                0x0800350c                _data_loadaddr = LOADADDR (.data)

.jcr            0x20000080        0x0 load address 0x0800358c
 .jcr           0x20000080        0x0 c:/program files (x86)/embitz/1.11/share/em_armgcc/bin/../lib/gcc/arm-none-eabi/5.4.1/armv7-m/crtbegin.o

.igot.plt       0x20000080        0x0 load address 0x0800358c
 .igot.plt      0x20000080        0x0 c:/program files (x86)/embitz/1.11/share/em_armgcc/bin/../lib/gcc/arm-none-eabi/5.4.1/armv7-m/crtbegin.o

.bss            0x20000080      0x1f0 load address 0x0800358c
 *(.bss*)
 .bss           0x20000080       0x1c c:/program files (x86)/embitz/1.11/share/em_armgcc/bin/../lib/gcc/arm-none-eabi/5.4.1/armv7-m/crtbegin.o
 .bss.ticks     0x2000009c        0x4 obj\debug\src\systick.o
                0x2000009c                ticks
 .bss.usbd_dev  0x200000a0        0x4 obj\debug\src\usb_device.o
                0x200000a0                usbd_dev
 .bss.uiADFlt   0x200000a4       0x10 obj\debug\src\xpt2046.o
 .bss.x         0x200000b4        0x2 obj\debug\src\xpt2046.o
 .bss.y         0x200000b6        0x2 obj\debug\src\xpt2046.o
 .bss.lastx     0x200000b8        0x2 obj\debug\src\xpt2046.o
 .bss.lasty     0x200000ba        0x2 obj\debug\src\xpt2046.o
 .bss.x_error   0x200000bc        0x2 obj\debug\src\xpt2046.o
 .bss.y_error   0x200000be        0x2 obj\debug\src\xpt2046.o
 .bss.debounce.5432
                0x200000c0        0x4 obj\debug\src\xpt2046.o
 .bss.skip.5433
                0x200000c4        0x2 obj\debug\src\xpt2046.o
 *(COMMON)
 *fill*         0x200000c6        0x2 
 COMMON         0x200000c8      0x104 obj\debug\libopencm3\stm32\common\st_usbfs_core.o
                0x200000c8                st_usbfs_force_nak
                0x200000d0                st_usbfs_dev
 COMMON         0x200001cc       0x80 obj\debug\src\usb_device.o
                0x200001cc                usbd_control_buffer
 COMMON         0x2000024c       0x24 obj\debug\src\xpt2046.o
                0x2000024c                hid_report
                0x20000250                touch_reports
                0x2000025c                data
                0x20000270                . = ALIGN (0x4)
                0x20000270                _ebss = .
                0x20000270                . = ALIGN (0x4)
                0x20000270                end = .
                0x20005000                PROVIDE (_stack, (ORIGIN (ram) + LENGTH (ram)))
LOAD obj\debug\libopencm3\cm3\assert.o
LOAD obj\debug\libopencm3\cm3\dwt.o
LOAD obj\debug\libopencm3\cm3\nvic.o
LOAD obj\debug\libopencm3\cm3\scb.o
LOAD obj\debug\libopencm3\cm3\sync.o
LOAD obj\debug\libopencm3\cm3\systick.o
LOAD obj\debug\libopencm3\cm3\vector.o
LOAD obj\debug\libopencm3\stm32\common\adc_common_v1.o
LOAD obj\debug\libopencm3\stm32\common\crc_common_all.o
LOAD obj\debug\libopencm3\stm32\common\dac_common_all.o
LOAD obj\debug\libopencm3\stm32\common\dma_common_l1f013.o
LOAD obj\debug\libopencm3\stm32\common\exti_common_all.o
LOAD obj\debug\libopencm3\stm32\common\flash_common_f01.o
LOAD obj\debug\libopencm3\stm32\common\gpio_common_all.o
LOAD obj\debug\libopencm3\stm32\common\i2c_common_all.o
LOAD obj\debug\libopencm3\stm32\common\iwdg_common_all.o
LOAD obj\debug\libopencm3\stm32\common\pwr_common_all.o
LOAD obj\debug\libopencm3\stm32\common\rcc_common_all.o
LOAD obj\debug\libopencm3\stm32\common\spi_common_all.o
LOAD obj\debug\libopencm3\stm32\common\st_usbfs_core.o
LOAD obj\debug\libopencm3\stm32\common\timer_common_all.o
LOAD obj\debug\libopencm3\stm32\common\usart_common_all.o
LOAD obj\debug\libopencm3\stm32\common\usart_common_f124.o
LOAD obj\debug\libopencm3\stm32\desig.o
LOAD obj\debug\libopencm3\stm32\f1\adc.o
LOAD obj\debug\libopencm3\stm32\f1\crc.o
LOAD obj\debug\libopencm3\stm32\f1\dac.o
LOAD obj\debug\libopencm3\stm32\f1\dma.o
LOAD obj\debug\libopencm3\stm32\f1\flash.o
LOAD obj\debug\libopencm3\stm32\f1\gpio.o
LOAD obj\debug\libopencm3\stm32\f1\i2c.o
LOAD obj\debug\libopencm3\stm32\f1\iwdg.o
LOAD obj\debug\libopencm3\stm32\f1\pwr.o
LOAD obj\debug\libopencm3\stm32\f1\rcc.o
LOAD obj\debug\libopencm3\stm32\f1\rtc.o
LOAD obj\debug\libopencm3\stm32\f1\spi.o
LOAD obj\debug\libopencm3\stm32\f1\timer.o
LOAD obj\debug\libopencm3\stm32\f1\usart.o
LOAD obj\debug\libopencm3\stm32\st_usbfs_v1.o
LOAD obj\debug\libopencm3\usb\usb.o
LOAD obj\debug\libopencm3\usb\usb_control.o
LOAD obj\debug\libopencm3\usb\usb_standard.o
LOAD obj\debug\src\main.o
LOAD obj\debug\src\system_stm32f10x.o
LOAD obj\debug\src\systick.o
LOAD obj\debug\src\usb_device.o
LOAD obj\debug\src\xpt2046.o
START GROUP
LOAD c:/program files (x86)/embitz/1.11/share/em_armgcc/bin/../lib/gcc/arm-none-eabi/5.4.1/armv7-m\libgcc.a
LOAD c:/program files (x86)/embitz/1.11/share/em_armgcc/bin/../lib/gcc/arm-none-eabi/5.4.1/../../../../arm-none-eabi/lib/armv7-m\libg_n.a
LOAD c:/program files (x86)/embitz/1.11/share/em_armgcc/bin/../lib/gcc/arm-none-eabi/5.4.1/../../../../arm-none-eabi/lib/armv7-m\libc_n.a
END GROUP
START GROUP
LOAD c:/program files (x86)/embitz/1.11/share/em_armgcc/bin/../lib/gcc/arm-none-eabi/5.4.1/armv7-m\libgcc.a
LOAD c:/program files (x86)/embitz/1.11/share/em_armgcc/bin/../lib/gcc/arm-none-eabi/5.4.1/../../../../arm-none-eabi/lib/armv7-m\libc_n.a
LOAD c:/program files (x86)/embitz/1.11/share/em_armgcc/bin/../lib/gcc/arm-none-eabi/5.4.1/../../../../arm-none-eabi/lib/armv7-m\libnosys_s.a
END GROUP
LOAD c:/program files (x86)/embitz/1.11/share/em_armgcc/bin/../lib/gcc/arm-none-eabi/5.4.1/armv7-m/crtend.o
LOAD c:/program files (x86)/embitz/1.11/share/em_armgcc/bin/../lib/gcc/arm-none-eabi/5.4.1/armv7-m/crtn.o
OUTPUT(bin\Debug\UniTouchR.elf elf32-littlearm)

.ARM.attributes
                0x00000000       0x29
 .ARM.attributes
                0x00000000       0x1d c:/program files (x86)/embitz/1.11/share/em_armgcc/bin/../lib/gcc/arm-none-eabi/5.4.1/armv7-m/crti.o
 .ARM.attributes
                0x0000001d       0x2d c:/program files (x86)/embitz/1.11/share/em_armgcc/bin/../lib/gcc/arm-none-eabi/5.4.1/armv7-m/crtbegin.o
 .ARM.attributes
                0x0000004a       0x33 obj\debug\libopencm3\cm3\systick.o
 .ARM.attributes
                0x0000007d       0x33 obj\debug\libopencm3\cm3\vector.o
 .ARM.attributes
                0x000000b0       0x33 obj\debug\libopencm3\stm32\common\flash_common_f01.o
 .ARM.attributes
                0x000000e3       0x33 obj\debug\libopencm3\stm32\common\gpio_common_all.o
 .ARM.attributes
                0x00000116       0x33 obj\debug\libopencm3\stm32\common\rcc_common_all.o
 .ARM.attributes
                0x00000149       0x33 obj\debug\libopencm3\stm32\common\spi_common_all.o
 .ARM.attributes
                0x0000017c       0x33 obj\debug\libopencm3\stm32\common\st_usbfs_core.o
 .ARM.attributes
                0x000001af       0x33 obj\debug\libopencm3\stm32\f1\gpio.o
 .ARM.attributes
                0x000001e2       0x33 obj\debug\libopencm3\stm32\f1\rcc.o
 .ARM.attributes
                0x00000215       0x33 obj\debug\libopencm3\stm32\st_usbfs_v1.o
 .ARM.attributes
                0x00000248       0x33 obj\debug\libopencm3\usb\usb.o
 .ARM.attributes
                0x0000027b       0x33 obj\debug\libopencm3\usb\usb_control.o
 .ARM.attributes
                0x000002ae       0x33 obj\debug\libopencm3\usb\usb_standard.o
 .ARM.attributes
                0x000002e1       0x33 obj\debug\src\main.o
 .ARM.attributes
                0x00000314       0x33 obj\debug\src\systick.o
 .ARM.attributes
                0x00000347       0x33 obj\debug\src\usb_device.o
 .ARM.attributes
                0x0000037a       0x33 obj\debug\src\xpt2046.o
 .ARM.attributes
                0x000003ad       0x2d c:/program files (x86)/embitz/1.11/share/em_armgcc/bin/../lib/gcc/arm-none-eabi/5.4.1/../../../../arm-none-eabi/lib/armv7-m\libg_n.a(lib_a-memcpy-stub.o)
 .ARM.attributes
                0x000003da       0x17 c:/program files (x86)/embitz/1.11/share/em_armgcc/bin/../lib/gcc/arm-none-eabi/5.4.1/../../../../arm-none-eabi/lib/armv7-m\libg_n.a(lib_a-strlen.o)

.comment        0x00000000       0x6e
 .comment       0x00000000       0x6e obj\debug\libopencm3\cm3\systick.o
                                 0x6f (size before relaxing)
 .comment       0x0000006e       0x6f obj\debug\libopencm3\cm3\vector.o
 .comment       0x0000006e       0x6f obj\debug\libopencm3\stm32\common\flash_common_f01.o
 .comment       0x0000006e       0x6f obj\debug\libopencm3\stm32\common\gpio_common_all.o
 .comment       0x0000006e       0x6f obj\debug\libopencm3\stm32\common\rcc_common_all.o
 .comment       0x0000006e       0x6f obj\debug\libopencm3\stm32\common\spi_common_all.o
 .comment       0x0000006e       0x6f obj\debug\libopencm3\stm32\common\st_usbfs_core.o
 .comment       0x0000006e       0x6f obj\debug\libopencm3\stm32\f1\gpio.o
 .comment       0x0000006e       0x6f obj\debug\libopencm3\stm32\f1\rcc.o
 .comment       0x0000006e       0x6f obj\debug\libopencm3\stm32\st_usbfs_v1.o
 .comment       0x0000006e       0x6f obj\debug\libopencm3\usb\usb.o
 .comment       0x0000006e       0x6f obj\debug\libopencm3\usb\usb_control.o
 .comment       0x0000006e       0x6f obj\debug\libopencm3\usb\usb_standard.o
 .comment       0x0000006e       0x6f obj\debug\src\main.o
 .comment       0x0000006e       0x6f obj\debug\src\systick.o
 .comment       0x0000006e       0x6f obj\debug\src\usb_device.o
 .comment       0x0000006e       0x6f obj\debug\src\xpt2046.o

.debug_info     0x00000000     0x73b5
 .debug_info    0x00000000      0x1d8 obj\debug\libopencm3\cm3\systick.o
 .debug_info    0x000001d8      0x297 obj\debug\libopencm3\cm3\vector.o
 .debug_info    0x0000046f      0x1da obj\debug\libopencm3\stm32\common\flash_common_f01.o
 .debug_info    0x00000649      0x20c obj\debug\libopencm3\stm32\common\gpio_common_all.o
 .debug_info    0x00000855      0x53c obj\debug\libopencm3\stm32\common\rcc_common_all.o
 .debug_info    0x00000d91      0x91d obj\debug\libopencm3\stm32\common\spi_common_all.o
 .debug_info    0x000016ae      0xdfe obj\debug\libopencm3\stm32\common\st_usbfs_core.o
 .debug_info    0x000024ac      0x1c8 obj\debug\libopencm3\stm32\f1\gpio.o
 .debug_info    0x00002674      0x5b8 obj\debug\libopencm3\stm32\f1\rcc.o
 .debug_info    0x00002c2c      0xbf3 obj\debug\libopencm3\stm32\st_usbfs_v1.o
 .debug_info    0x0000381f      0xced obj\debug\libopencm3\usb\usb.o
 .debug_info    0x0000450c      0xbf4 obj\debug\libopencm3\usb\usb_control.o
 .debug_info    0x00005100     0x118a obj\debug\libopencm3\usb\usb_standard.o
 .debug_info    0x0000628a      0x27f obj\debug\src\main.o
 .debug_info    0x00006509      0x131 obj\debug\src\systick.o
 .debug_info    0x0000663a      0x789 obj\debug\src\usb_device.o
 .debug_info    0x00006dc3      0x5f2 obj\debug\src\xpt2046.o

.debug_abbrev   0x00000000     0x15f5
 .debug_abbrev  0x00000000       0xcf obj\debug\libopencm3\cm3\systick.o
 .debug_abbrev  0x000000cf      0x116 obj\debug\libopencm3\cm3\vector.o
 .debug_abbrev  0x000001e5       0xd4 obj\debug\libopencm3\stm32\common\flash_common_f01.o
 .debug_abbrev  0x000002b9       0xc2 obj\debug\libopencm3\stm32\common\gpio_common_all.o
 .debug_abbrev  0x0000037b       0xb4 obj\debug\libopencm3\stm32\common\rcc_common_all.o
 .debug_abbrev  0x0000042f      0x14c obj\debug\libopencm3\stm32\common\spi_common_all.o
 .debug_abbrev  0x0000057b      0x1f2 obj\debug\libopencm3\stm32\common\st_usbfs_core.o
 .debug_abbrev  0x0000076d       0xa8 obj\debug\libopencm3\stm32\f1\gpio.o
 .debug_abbrev  0x00000815      0x16d obj\debug\libopencm3\stm32\f1\rcc.o
 .debug_abbrev  0x00000982      0x19d obj\debug\libopencm3\stm32\st_usbfs_v1.o
 .debug_abbrev  0x00000b1f      0x1ab obj\debug\libopencm3\usb\usb.o
 .debug_abbrev  0x00000cca      0x224 obj\debug\libopencm3\usb\usb_control.o
 .debug_abbrev  0x00000eee      0x288 obj\debug\libopencm3\usb\usb_standard.o
 .debug_abbrev  0x00001176       0x86 obj\debug\src\main.o
 .debug_abbrev  0x000011fc       0xd4 obj\debug\src\systick.o
 .debug_abbrev  0x000012d0      0x1c2 obj\debug\src\usb_device.o
 .debug_abbrev  0x00001492      0x163 obj\debug\src\xpt2046.o

.debug_aranges  0x00000000      0x840
 .debug_aranges
                0x00000000       0x78 obj\debug\libopencm3\cm3\systick.o
 .debug_aranges
                0x00000078       0x38 obj\debug\libopencm3\cm3\vector.o
 .debug_aranges
                0x000000b0       0x88 obj\debug\libopencm3\stm32\common\flash_common_f01.o
 .debug_aranges
                0x00000138       0x50 obj\debug\libopencm3\stm32\common\gpio_common_all.o
 .debug_aranges
                0x00000188       0x68 obj\debug\libopencm3\stm32\common\rcc_common_all.o
 .debug_aranges
                0x000001f0      0x178 obj\debug\libopencm3\stm32\common\spi_common_all.o
 .debug_aranges
                0x00000368       0x68 obj\debug\libopencm3\stm32\common\st_usbfs_core.o
 .debug_aranges
                0x000003d0       0x38 obj\debug\libopencm3\stm32\f1\gpio.o
 .debug_aranges
                0x00000408      0x158 obj\debug\libopencm3\stm32\f1\rcc.o
 .debug_aranges
                0x00000560       0x30 obj\debug\libopencm3\stm32\st_usbfs_v1.o
 .debug_aranges
                0x00000590       0x88 obj\debug\libopencm3\usb\usb.o
 .debug_aranges
                0x00000618       0x70 obj\debug\libopencm3\usb\usb_control.o
 .debug_aranges
                0x00000688       0xb8 obj\debug\libopencm3\usb\usb_standard.o
 .debug_aranges
                0x00000740       0x20 obj\debug\src\main.o
 .debug_aranges
                0x00000760       0x38 obj\debug\src\systick.o
 .debug_aranges
                0x00000798       0x50 obj\debug\src\usb_device.o
 .debug_aranges
                0x000007e8       0x58 obj\debug\src\xpt2046.o

.debug_ranges   0x00000000      0x730
 .debug_ranges  0x00000000       0x68 obj\debug\libopencm3\cm3\systick.o
 .debug_ranges  0x00000068       0x28 obj\debug\libopencm3\cm3\vector.o
 .debug_ranges  0x00000090       0x78 obj\debug\libopencm3\stm32\common\flash_common_f01.o
 .debug_ranges  0x00000108       0x40 obj\debug\libopencm3\stm32\common\gpio_common_all.o
 .debug_ranges  0x00000148       0x58 obj\debug\libopencm3\stm32\common\rcc_common_all.o
 .debug_ranges  0x000001a0      0x168 obj\debug\libopencm3\stm32\common\spi_common_all.o
 .debug_ranges  0x00000308       0x58 obj\debug\libopencm3\stm32\common\st_usbfs_core.o
 .debug_ranges  0x00000360       0x28 obj\debug\libopencm3\stm32\f1\gpio.o
 .debug_ranges  0x00000388      0x148 obj\debug\libopencm3\stm32\f1\rcc.o
 .debug_ranges  0x000004d0       0x20 obj\debug\libopencm3\stm32\st_usbfs_v1.o
 .debug_ranges  0x000004f0       0x78 obj\debug\libopencm3\usb\usb.o
 .debug_ranges  0x00000568       0x60 obj\debug\libopencm3\usb\usb_control.o
 .debug_ranges  0x000005c8       0xa8 obj\debug\libopencm3\usb\usb_standard.o
 .debug_ranges  0x00000670       0x10 obj\debug\src\main.o
 .debug_ranges  0x00000680       0x28 obj\debug\src\systick.o
 .debug_ranges  0x000006a8       0x40 obj\debug\src\usb_device.o
 .debug_ranges  0x000006e8       0x48 obj\debug\src\xpt2046.o

.debug_macro    0x00000000     0x27ef
 .debug_macro   0x00000000       0x93 obj\debug\libopencm3\cm3\systick.o
 .debug_macro   0x00000093       0x64 obj\debug\libopencm3\cm3\systick.o
 .debug_macro   0x000000f7       0xd0 obj\debug\libopencm3\cm3\vector.o
 .debug_macro   0x000001c7       0x6a obj\debug\libopencm3\cm3\vector.o
 .debug_macro   0x00000231       0xb9 obj\debug\libopencm3\stm32\common\flash_common_f01.o
 .debug_macro   0x000002ea       0xdc obj\debug\libopencm3\stm32\common\flash_common_f01.o
 .debug_macro   0x000003c6       0x82 obj\debug\libopencm3\stm32\common\flash_common_f01.o
 .debug_macro   0x00000448       0xb9 obj\debug\libopencm3\stm32\common\gpio_common_all.o
 .debug_macro   0x00000501       0xcf obj\debug\libopencm3\stm32\common\rcc_common_all.o
 .debug_macro   0x000005d0       0xdb obj\debug\libopencm3\stm32\common\spi_common_all.o
 .debug_macro   0x000006ab      0x2eb obj\debug\libopencm3\stm32\common\spi_common_all.o
 .debug_macro   0x00000996       0x16 obj\debug\libopencm3\stm32\common\spi_common_all.o
 .debug_macro   0x000009ac      0x10e obj\debug\libopencm3\stm32\common\st_usbfs_core.o
 .debug_macro   0x00000aba       0x3a obj\debug\libopencm3\stm32\common\st_usbfs_core.o
 .debug_macro   0x00000af4      0x29e obj\debug\libopencm3\stm32\common\st_usbfs_core.o
 .debug_macro   0x00000d92       0x28 obj\debug\libopencm3\stm32\common\st_usbfs_core.o
 .debug_macro   0x00000dba      0x19c obj\debug\libopencm3\stm32\common\st_usbfs_core.o
 .debug_macro   0x00000f56       0x10 obj\debug\libopencm3\stm32\common\st_usbfs_core.o
 .debug_macro   0x00000f66       0x1c obj\debug\libopencm3\stm32\common\st_usbfs_core.o
 .debug_macro   0x00000f82       0x10 obj\debug\libopencm3\stm32\common\st_usbfs_core.o
 .debug_macro   0x00000f92       0xb9 obj\debug\libopencm3\stm32\f1\gpio.o
 .debug_macro   0x0000104b       0xe0 obj\debug\libopencm3\stm32\f1\rcc.o
 .debug_macro   0x0000112b      0x10e obj\debug\libopencm3\stm32\st_usbfs_v1.o
 .debug_macro   0x00001239      0x14a obj\debug\libopencm3\usb\usb.o
 .debug_macro   0x00001383      0x174 obj\debug\libopencm3\usb\usb.o
 .debug_macro   0x000014f7       0x10 obj\debug\libopencm3\usb\usb.o
 .debug_macro   0x00001507       0x35 obj\debug\libopencm3\usb\usb.o
 .debug_macro   0x0000153c      0x196 obj\debug\libopencm3\usb\usb.o
 .debug_macro   0x000016d2      0x161 obj\debug\libopencm3\usb\usb_control.o
 .debug_macro   0x00001833      0x14a obj\debug\libopencm3\usb\usb_standard.o
 .debug_macro   0x0000197d      0x1dc obj\debug\src\main.o
 .debug_macro   0x00001b59       0x6a obj\debug\src\main.o
 .debug_macro   0x00001bc3      0x3a7 obj\debug\src\main.o
 .debug_macro   0x00001f6a       0x10 obj\debug\src\main.o
 .debug_macro   0x00001f7a       0x1c obj\debug\src\main.o
 .debug_macro   0x00001f96       0xe9 obj\debug\src\systick.o
 .debug_macro   0x0000207f      0x20a obj\debug\src\usb_device.o
 .debug_macro   0x00002289       0x1c obj\debug\src\usb_device.o
 .debug_macro   0x000022a5      0x298 obj\debug\src\usb_device.o
 .debug_macro   0x0000253d       0x52 obj\debug\src\usb_device.o
 .debug_macro   0x0000258f       0x16 obj\debug\src\usb_device.o
 .debug_macro   0x000025a5      0x24a obj\debug\src\xpt2046.o

.debug_line     0x00000000     0x4e10
 .debug_line    0x00000000      0x310 obj\debug\libopencm3\cm3\systick.o
 .debug_line    0x00000310      0x3a1 obj\debug\libopencm3\cm3\vector.o
 .debug_line    0x000006b1      0x3f5 obj\debug\libopencm3\stm32\common\flash_common_f01.o
 .debug_line    0x00000aa6      0x361 obj\debug\libopencm3\stm32\common\gpio_common_all.o
 .debug_line    0x00000e07      0x397 obj\debug\libopencm3\stm32\common\rcc_common_all.o
 .debug_line    0x0000119e      0x67d obj\debug\libopencm3\stm32\common\spi_common_all.o
 .debug_line    0x0000181b      0x657 obj\debug\libopencm3\stm32\common\st_usbfs_core.o
 .debug_line    0x00001e72      0x38f obj\debug\libopencm3\stm32\f1\gpio.o
 .debug_line    0x00002201      0x748 obj\debug\libopencm3\stm32\f1\rcc.o
 .debug_line    0x00002949      0x407 obj\debug\libopencm3\stm32\st_usbfs_v1.o
 .debug_line    0x00002d50      0x3fd obj\debug\libopencm3\usb\usb.o
 .debug_line    0x0000314d      0x485 obj\debug\libopencm3\usb\usb_control.o
 .debug_line    0x000035d2      0x5be obj\debug\libopencm3\usb\usb_standard.o
 .debug_line    0x00003b90      0x421 obj\debug\src\main.o
 .debug_line    0x00003fb1      0x369 obj\debug\src\systick.o
 .debug_line    0x0000431a      0x4ed obj\debug\src\usb_device.o
 .debug_line    0x00004807      0x609 obj\debug\src\xpt2046.o

.debug_str      0x00000000    0x1470c
 .debug_str     0x00000000     0x3ab9 obj\debug\libopencm3\cm3\systick.o
                               0x3c5a (size before relaxing)
 .debug_str     0x00003ab9     0x250f obj\debug\libopencm3\cm3\vector.o
                               0x5e03 (size before relaxing)
 .debug_str     0x00005fc8     0x1425 obj\debug\libopencm3\stm32\common\flash_common_f01.o
                               0x4d1b (size before relaxing)
 .debug_str     0x000073ed     0x382e obj\debug\libopencm3\stm32\common\gpio_common_all.o
                               0x7c97 (size before relaxing)
 .debug_str     0x0000ac1b     0x2946 obj\debug\libopencm3\stm32\common\rcc_common_all.o
                               0x6da9 (size before relaxing)
 .debug_str     0x0000d561     0x1208 obj\debug\libopencm3\stm32\common\spi_common_all.o
                               0x7c21 (size before relaxing)
 .debug_str     0x0000e769     0x247c obj\debug\libopencm3\stm32\common\st_usbfs_core.o
                               0x8db3 (size before relaxing)
 .debug_str     0x00010be5       0x93 obj\debug\libopencm3\stm32\f1\gpio.o
                               0x7ca9 (size before relaxing)
 .debug_str     0x00010c78      0x53e obj\debug\libopencm3\stm32\f1\rcc.o
                               0x74ca (size before relaxing)
 .debug_str     0x000111b6       0x7b obj\debug\libopencm3\stm32\st_usbfs_v1.o
                               0x8eb5 (size before relaxing)
 .debug_str     0x00011231     0x2a93 obj\debug\libopencm3\usb\usb.o
                               0x7149 (size before relaxing)
 .debug_str     0x00013cc4      0x24e obj\debug\libopencm3\usb\usb_control.o
                               0x71c7 (size before relaxing)
 .debug_str     0x00013f12      0x2e8 obj\debug\libopencm3\usb\usb_standard.o
                               0x72cd (size before relaxing)
 .debug_str     0x000141fa       0xe9 obj\debug\src\main.o
                               0xe8db (size before relaxing)
 .debug_str     0x000142e3       0x5e obj\debug\src\systick.o
                               0x72d3 (size before relaxing)
 .debug_str     0x00014341      0x194 obj\debug\src\usb_device.o
                               0xac28 (size before relaxing)
 .debug_str     0x000144d5      0x237 obj\debug\src\xpt2046.o
                               0xe515 (size before relaxing)

.debug_frame    0x00000000     0x2034
 .debug_frame   0x00000000      0x1a4 obj\debug\libopencm3\cm3\systick.o
 .debug_frame   0x000001a4       0x78 obj\debug\libopencm3\cm3\vector.o
 .debug_frame   0x0000021c      0x1d8 obj\debug\libopencm3\stm32\common\flash_common_f01.o
 .debug_frame   0x000003f4      0x124 obj\debug\libopencm3\stm32\common\gpio_common_all.o
 .debug_frame   0x00000518      0x1a0 obj\debug\libopencm3\stm32\common\rcc_common_all.o
 .debug_frame   0x000006b8      0x6e8 obj\debug\libopencm3\stm32\common\spi_common_all.o
 .debug_frame   0x00000da0      0x1ac obj\debug\libopencm3\stm32\common\st_usbfs_core.o
 .debug_frame   0x00000f4c       0xb0 obj\debug\libopencm3\stm32\f1\gpio.o
 .debug_frame   0x00000ffc      0x5ac obj\debug\libopencm3\stm32\f1\rcc.o
 .debug_frame   0x000015a8       0x7c obj\debug\libopencm3\stm32\st_usbfs_v1.o
 .debug_frame   0x00001624      0x224 obj\debug\libopencm3\usb\usb.o
 .debug_frame   0x00001848      0x1a8 obj\debug\libopencm3\usb\usb_control.o
 .debug_frame   0x000019f0      0x314 obj\debug\libopencm3\usb\usb_standard.o
 .debug_frame   0x00001d04       0x30 obj\debug\src\main.o
 .debug_frame   0x00001d34       0x94 obj\debug\src\systick.o
 .debug_frame   0x00001dc8      0x100 obj\debug\src\usb_device.o
 .debug_frame   0x00001ec8      0x144 obj\debug\src\xpt2046.o
 .debug_frame   0x0000200c       0x28 c:/program files (x86)/embitz/1.11/share/em_armgcc/bin/../lib/gcc/arm-none-eabi/5.4.1/../../../../arm-none-eabi/lib/armv7-m\libg_n.a(lib_a-memcpy-stub.o)
